:020000040000FA
:0600000074EF0AF012008B
:0A0006000100261500006000000054
:0400100012000000DA
:0C001400D5EC07F06CEC08F099EC06F05D
:1000200081A408D0320EE66EE66AF2EC05F0E552E5
:10003000E552F6D7050E836E8280010EE66EE66A03
:1000400064EC06F0E552E552040E836E8290010ED8
:10005000E66EE66A64EC06F0E552E552030E836E46
:100060008280010EE66EE66A64EC06F0E552E55227
:10007000020E836E8290010EE66EE66A64EC06F074
:10008000E552E552010E836E8280E66EE66A64EC0C
:1000900006F0E552E552829064C0E6FF79EC08F084
:1000A000E552F3CF68F0F4CF69F062C0E6FF79EC77
:1000B00008F0E552F3CF6AF0F4CF6BF0000168511D
:1000C000F3246E6F6951F4206F6F020E0D6E0E6A8D
:1000D0006EC008F06FC009F0AEEC02F008C06EF020
:1000E00009C06FF060C0E6FF79EC08F0E552F3CF8D
:1000F00066F0F4CF67F064C0E6FF79EC08F0E552F3
:10010000F3CF18F0F4CF19F0F3CF08F0F4CF09F0E3
:100110002EEC02F007C014F008C015F009C016F06C
:100120000AC017F0660E0C6E0D6E0E6E3F0E0F6E4F
:1001300041EC02F0D4EC02F008C068F009C069F0AC
:1001400062C0E6FF79EC08F0E552F3CF6AF0F4CF35
:100150006BF0070E00016C6F6D6B6851F3246E6FCE
:100160006951F4206F6F020E0D6E0E6A6EC008F0BA
:100170006FC009F0AEEC02F008C06EF009C06FF07D
:100180000001673517E26651F408010E675512E267
:100190006F3510E26E519608000E6F550BE2D89045
:1001A000675104E6580E665D020E675903E2030EBE
:1001B000666F676B68516A5D146E6B516955156E99
:1001C00014506C03F3CF70F0F4CF71F06D03F35063
:1001D000712715506C03F350712767355EE2665145
:1001E0004E08020E675559E28280000EE66EE66AFE
:1001F000B3EC06F0E552E552000EE66EE66AD2EC8C
:1002000006F0E552E552F40EE66E010EE66EF2ECF3
:1002100005F0E552E55260C0E6FF79EC08F0E552E2
:10022000F3CF66F0F4CF67F00001F43434E26651A6
:10023000D608010E67552FE2010EE66EFC0EE66E43
:10024000B3EC06F0E552E552010EE66EFC0EE66EEA
:10025000D2EC06F0E552E552C20EE66E010EE66EF5
:10026000F2EC05F0E552E552E668030EE66EB3ECFB
:1002700006F0E552E5520C0EE66EFE0EE66ED2EC8E
:1002800006F0E552E552580EE66E020EE66EF2EC0E
:1002900005F0E552E552829091D06F3510E26E5133
:1002A0005E08010E6F550BE2E668030EE66EB3ECD6
:1002B00006F0E552E552BC0EE66E020E7AD06AC038
:1002C00008F06BC009F02EEC02F007C014F008C073
:1002D00015F009C016F00AC017F068C008F069C030
:1002E00009F02EEC02F007C01CF008C01DF009C098
:1002F0001EF00AC01FF0CD0E0C6ECC0E0D6E8C0ED3
:100300000E6E3F0E0F6E41EC02F007C018F008C0F1
:1003100019F009C01AF00AC01BF007C00CF008C0A1
:100320000DF009C00EF00AC00FF014C007F015C0A0
:1003300008F016C009F017C00AF003EC03F0010A38
:100340000EE170C014F071C015F0FF0ED880145685
:10035000030E155614C0E6FF15C0E6FF24D00001B9
:100360006B516919E8AE02D0693504D068516A5DF5
:1003700069516B5915E2E668030EE66EB3EC06F0C0
:10038000E552E55270C014F071C015F0FF0ED88030
:100390001456030E155614C0E6FF15C0E6FF0AD02A
:1003A000E668030EE66EB3EC06F0E552E552E66849
:1003B000030EE66ED2EC06F0E552E552030EE66E51
:1003C000E66AF2EC05F0E552E5528CD6D9CFE6FFAD
:1003D000E1CFD9FFFB0EDBCF1AF0FC0EDBCF1BF019
:1003E000FD0EDB501A18186EFE0EDB501B18196E2E
:1003F000FD0EDBCF1EF0FE0EDBCF1FF0FB0EDBCFC2
:1004000020F0FC0EDBCF21F01F502118E8AE02D007
:10041000213404D020501E5C21501F5802E3000EEE
:1004200001D0010EFF0DF3CF1CF01D6A1CBE1D682C
:1004300018501C14166E19501D14176EFD0EDB504B
:100440001618146EFE0EDB50171814C0F3FFF46E6E
:08045000E552E7CFD9FF1200CD
:08045800019E08D0019E09AECF
:1004600005D0086C091EE86A0922018E09C003F054
:1004700008C002F0136A126A8E0E046E056A7DEFE0
:1004800003F0016AB9EC03F0D1EC03F001B661EFBF
:1004900003F001A205D001B861EF03F068EF03F0AB
:1004A00001AA05D001B061EF03F068EF03F001B0DD
:1004B00002D001A802D074EF03F0056A0F500A249D
:1004C000046EE86A05227E0E045EE86A055A126A26
:1004D000136A026A036A0E500902F4CF03F0F3CFE5
:1004E00002F00D500902F3501326F4500222000EC0
:1004F00003220E500802F3501326F4500222000E7D
:1005000003220C500902F3501226F4501322000E5D
:10051000022203220D500802F3501226F450132237
:10052000000E022203220E500702F3501226F4504E
:100530001322000E022203220C500802F45012264D
:10054000000E1322022203220D500702F45012263D
:10055000000E1322022203227DEF03F0006A0EAE8A
:10056000B7EF02F00D6C0E1EE86A0E22001E09AEF7
:10057000BFEF02F0086C091EE86A0922001E4EEC6B
:100580000AF009BECFEF02F000AE000C086C091EA5
:10059000E86A0922046C051EE86A0522000C00BE08
:1005A000C6EF02F00188FF0C016AB9EC03F001B656
:1005B000DEEF02F001A20ED001B405D07F0E096E6D
:1005C000FF0E086E1FD0800E096E086A1BD0096AE4
:1005D000086A18D001B0FBD78F0E0A60EDD77E0EE7
:1005E0000A64F5D78E0E0A5C05E0D890093208320D
:1005F0000A2AF8D701A406D0086C091EE86A092265
:1006000009AEE5D712000CEC03F001B6000C01B006
:10061000000C01B4000C010C016AB9EC03F0D1EC40
:1006200003F001B6120001AE08D001A004D001A869
:1006300002D001801200019012000F500A5C0BE101
:100640000E50095C08E10D50085C05E10C50075C98
:1006500002E101801200D8A002D0018E10D00A5011
:100660000FC00AF00F6E09500EC009F00E6E085050
:100670000DC008F00D6E07500CC007F00C6E0F5047
:100680000A5C10E0FF0F09E0019001B403D001AE55
:100690000184120001AE019412000F2AD8900E328C
:1006A0000D320C320C50075E0D50085A0E50095A8C
:1006B00009BEEAD7D8900736083609360A2EF8D789
:1006C000C8D77F0E0A6EFF0E096E086E076E120005
:1006D0007F0E01BEFF0E0A6E02D07F0E0A6E800EE4
:1006E000096E086A076AF3D701AE04D0800E0A6E5D
:1006F000096AF7D70A6A096AF4D70350021013107F
:100700001210F8E005BEF0D703BE0CD0045005105F
:10071000EBE0D89012361336023603360406D8A022
:100720000506F2D70550D4E10428D2E012AE11D06C
:100730007F0E121402E113A00CD0132AE86A0222E1
:10074000032207E3D880033202321332042A04283A
:10075000BFE00450C9E013C007F002C008F0033442
:10076000096E04300A6E09320A9E01BE0A8E67EFD6
:1007700003F009360A3602E30184017E06E10180B6
:100780000A6A096A086A076A12000A2803E0D88020
:1007900009321200D890093202E10182120001866A
:1007A00012000E360F3602E3018C017E06E101884D
:1007B0000F6A0E6A0D6A0C6A12000F2803E0D880D7
:0E07C0000E321200D8900E32EAE1018A1200C9
:0207CE00949005
:1007D0000A0EC16E050E87D9836A95689690969227
:1007E00096948490849284940F0E7DD9956A300EED
:1007F00070D9300E6ED9300E6CD9380E6AD9060E0B
:1008000068D9180E66D90C0E64D900017F6B7FC0C1
:100810007EF00BEF04F0010E5CD9020E64D9E66A9B
:10082000E66A34D8E552E5521200D9CFE6FFDACFB6
:10083000E6FFE1CFD9FFE2CFDAFFE652E65283507E
:10084000DF6E8492849084848350DF6EFD0EDB50D3
:10085000836E8494DF50836EDE522D0EDD6E010EAA
:10086000DB520CE0DB06010EDB5208E0000000006A
:100870000000000000000000DB06F5D7E552E5525D
:10088000E552E5CFDAFFE7CFD9FF1200D9CFE6FF77
:10089000DACFE6FFE1CFD9FFE2CFDAFFE652E65248
:1008A000FD0EDB50010805E2010EF36EFD0EF3CFE5
:1008B000DBFFFC0EDB500F0805E20F0EF36EFC0EA3
:1008C000F3CFDBFFFD0EDBCF7EF0FC0EDBCF7FF046
:1008D000FD0EDB0403E1C00EDF6E02D0800EDF6E82
:1008E000FC0EDB98DB9ADB9CDB9EFC0EDB50DF1200
:1008F000DFCFE6FF9ADFE552DE522D0EDD6E010EF0
:10090000DB520CE0DB06010EDB5208E000000000C9
:100910000000000000000000DB06F5D7E552E552BC
:10092000E552E5CFDAFFE7CFD9FF1200D9CFE6FFD6
:10093000DACFE6FFE1CFD9FFE2CFDAFFE652E652A7
:10094000E6528350DE6EDD6A00017F510F080BE234
:1009500000017E5102E05FDF06D0E66A010EE66E1E
:1009600095DFE552E5528492848084848350DE6E64
:10097000DD6AFD0EDB50836E8494DF50836E2D0E96
:10098000F36E020EF3CFDBFF020EDB520CE0DB0650
:10099000020EDB5208E00000000000000000000032
:1009A0000000DB06F5D700017F2BE552E552E5524A
:1009B000E552E5CFDAFFE7CFD9FF12007ED8FB0E74
:1009C000DBCFE6FFFC0E9DD8FD0EDBCFE6FFAEDFF2
:1009D000E55279D072D8FB0EDBCFF6FFFC0EDBCFF1
:1009E000F7FFFD0EDBCFF8FF0800F55016E0D950F9
:1009F000FB0FE96EFF0EDA20EA6EEFCFF6FFEE2A6C
:100A0000EFCFF7FF000EEE22EFCFF8FFEE22080047
:100A1000F550E66E8BDFE552DED755D04ED85DD867
:100A2000FC0EDBCF14F0FD0EDBCF15F0166A14C000
:100A3000E6FF15C0E6FF16C0E6FFCCDFE552E55243
:100A4000E55241D03AD8FC0EDBCFE9FFFD0EDBCFFB
:100A5000EAFFEF500EE0FC0EDBCFE9FFDB2AFD0ED4
:100A6000DBCFEAFF01E3DB2AEF50E66E5FDFE55202
:100A7000EAD729D022D8070EE12402E3E168E65242
:100A8000E16E45D837D83BEC07F0E552E552E55228
:100A9000E552060EDB6A3BD8D5DFE552E552070E7C
:100AA000E15C02E2E16AE552E16E0DD006D815D8AC
:100AB00021D8E0DFE552E55206D029D8E1CFD9FFB1
:100AC000E2CFDAFF1200E552E5CFDAFFE7CFD9FF38
:100AD0001200E66EAADEE5521200FA0EDBCFE6FF48
:100AE000FB0E81EF05F0E66EE66AF2EC05F0E552EA
:100AF000E5521200FC0EDBCFE6FFFD0EDBCFE6FF7A
:100B00001200DBCFE6FFC2DEE552E5521200D9CF7C
:080B1000E6FFDACFE6FF120058
:080B1800D9CFE6FFDACFE6FFBA
:100B2000E1CFD9FFE2CFDAFFE652E652E652E652D3
:100B3000D950FC0FE96EFF0EDA20EA6EEE50ED1090
:100B400045E05F0EF36E020EF3CFDBFF020EDB52C9
:100B50000CE0DB06020EDB5208E0000000000000A3
:100B6000000000000000DB06F5D7010EDE6EDD6A36
:100B7000DECF14F0DDCF15F0FC0EDBCF16F0FD0E4E
:100B8000DBCF17F015501718E8AE02D0173404D099
:100B90001650145C1750155819E2620EF36E030ECE
:100BA000F3CFDBFF030EDB520CE0DB06030EDB5260
:100BB00008E0000000000000000000000000DB066C
:100BC000F5D7DF2A010E01E3DB2AD2D7040EE15C60
:100BD00002E2E16AE552E16EE552E5CFDAFFE7CFE6
:100BE000D9FF1200D9CFE6FFDACFE6FFE1CFD9FF78
:100BF000E2CFDAFFE652E652E652E652D950FC0F57
:100C0000E96EFF0EDA20EA6EEE50ED1051E05E0E56
:100C1000F36E020EF3CFDBFF020EDB520CE0DB06BD
:100C2000020EDB5208E0000000000000000000009F
:100C30000000DB06F5D7090EE66EE66A6DDFE552C9
:100C4000E552010EDE6EDD6ADECF14F0DDCF15F069
:100C5000FC0EDBCF16F0FD0EDBCF17F0155017188A
:100C6000E8AE02D0173404D01650145C1750155853
:100C70001FE2600EF36E030EF3CFDBFF030EDB52B9
:100C80000CE0DB06030EDB5208E000000000000071
:100C9000000000000000DB06F5D7090EE66EE66AEC
:100CA0003BDFE552E552DF2A010E01E3DB2ACCD718
:100CB000040EE15C02E2E16AE552E16EE552E5CF45
:100CC000DAFFE7CFD9FF1200D9CFE6FFDACFE6FF90
:100CD000E1CFD9FFE2CFDAFFE652E652DE6ADD6A03
:100CE000DECF14F0DDCF15F0FC0EDBCF16F0FD0EDD
:100CF000DBCF17F015501718E8AE02D0173404D028
:100D00001650145C175015580CE2E80EE66E030EF0
:100D1000E66E68DFE552E552DF2A010EE1E3DB2AE9
:100D2000DFD7E552E552E552E5CFDAFFE7CFD9FF4D
:020D30001200AF
:0E0D32009494929894929396E6681FEC0AF0BF
:100D4000E552E66834EC09F0E552050EE66E04EC77
:100D50000AF0E55274D807D8E552E55270D822D887
:100D6000E552E552120044D804E214500008000E87
:100D7000155402E3000E01D0010EDF6E00017C511C
:100D8000DF5C06E05CD8D5EC09F048D8DFCF7CF01A
:100D9000DF0404E158D865D8809803D035D861D8ED
:100DA000808846D025D804E214500008000E15545F
:100DB00002E3000E01D0010EDF6E00017D51DF5C09
:100DC00006E03DD8A6EC09F029D8DFCF7DF0DF049E
:100DD00004E139D84BD8819603D016D847D88186FC
:100DE00027D02DD83ED880982AD840D88196120096
:100DF000D9CFE6FFDACFE6FFE1CFD9FFE2CFDAFFC6
:100E0000E65228D81534120025D8FF0E1426030EFA
:100E1000152214C0E6FF15C0E6FF1200E552E552A8
:100E2000140EE66EE66AF2EC05F0E552E5521200A9
:100E3000E552E552E5CFDAFFE7CFD9FF1200000E09
:100E4000E66EE66A1200FC0EDBCFE6FFFD0EDBCF9E
:100E5000E6FF1200FC0EDBCF14F0FD0EDBCF15F029
:100E60001200D5EC09F0E552E5521200A6EC09F0AB
:060E7000E552E5521200FC
:0A0E7600D9CFE6FFDACFE6FFFA0E4F
:100E8000E3CFD9FFFB0EE3CFDAFFFD0EE35209E714
:100E90002D0EDE6EFC0EE31EE32AFD0ED8B4E30633
:100EA000E31EE652E652E652FD0EE124E76EFF0E27
:100EB000E220E46EE652F70EE3CFE6FFF70EE3CF53
:100EC000E6FFABEC07F0F90EE124E96EFF0EE2203D
:100ED000EA6E9BEC07F00AE198EC07F009E19BEC65
:100EE00007F008E198EC07F007E108D0A6EC07F05E
:100EF000A1EC07F0A6EC07F0A1EC07F0A6EC07F0D8
:100F0000DE6AF90EE126FF0EE222FF0EE3CFDAFFE2
:100F1000E552FF0EE3CFD9FFE552FC0EE124E96E66
:100F2000FF0EE220EA6EEECFF3FFEFCFF4FF1200E8
:100F3000EF380F0B1200EF500F0B02E1EE52D88486
:100F40001200EF380F0B300FDE6E1200EE500F0B59
:100F5000300FDE6E1200FC0EE3CFE9FFFD0EE3CF93
:100F6000EAFF100EE66EEE6AEE6AEF6AD890FD0EAA
:100F7000E336FE0EE336ED36ED36EF36FF0EE306D2
:100F800009E0CCEC07F0EE52CCEC07F0EE52CCECE2
:100F900007F0EDD7E56E1200030EEF24E8B6EF6E12
:0A0FA000300EEF24E8BEEF6E000CE7
:060FAA00E7EC03F00BEC84
:100FB00004F093849388938A93809382F19E956A38
:100FC000836A120085D8836E7DD082D8070A1CE020
:100FD000010A18E0030A14E0010A10E0070A0CE015
:100FE000010A08E0030A04E0010A0FE183800DD042
:100FF00083820BD0838409D0838607D0838805D071
:10100000838A03D0838C01D0838E5CD061D8070A99
:101010001CE0010A18E0030A14E0010A10E0070AC4
:101020000CE0010A08E0030A04E0010A0FE18390E2
:101030000DD083920BD0839409D0839607D08398E8
:1010400005D0839A03D0839C01D0839E3BD031D8B6
:10105000F60EDB50E8B08380E8A08390F70EDB50FB
:10106000E8B08382E8A08392F80EDB50E8B0838476
:10107000E8A08394F90EDB50E8B08386E8A083965D
:10108000FA0EDB50E8B08388E8A08398FB0EDB50B3
:10109000E8B0838AE8A0839AFC0EDB50E8B0838C2A
:1010A000E8A0839CFD0EDB50E8B0838EE8A0839E11
:1010B00009D0D9CFE6FFDACFE6FFE1CFD9FFE2CF03
:1010C000DAFF1200E552E5CFDAFFE7CFD9FF1200D1
:0810D000F0DFFD0EDB50120001
:0810D80089680A0EE66E040EA1
:1010E000E66EE70EE66E6FEC09F0E552E552E5526A
:1010F0001200D9CFE6FFDACFE6FFE1CFD9FFE2CF8A
:10110000DAFFE652E652E652FD0EDB50040A21E019
:10111000070A19E0010A11E0030A09E0010A01E0E7
:101120001ED0870EE66E37EC0AF0E5521BD08F0E0C
:10113000E66E37EC0AF0E55215D0970EE66E37EC06
:101140000AF0E5520FD09F0EE66E37EC0AF0E5523A
:1011500009D0A70EE66E37EC0AF0E55203D0F3682B
:10116000F4682AD07D0EF36E020EF3CFDBFF020E81
:10117000DB520CE0DB06020EDB5208E00000000050
:101180000000000000000000DB06F5D790EC0AF03C
:101190008BEC0AF0000901E0FBD782EC0AF0F3CFF8
:1011A000DEFFF4CFDDFFDECF14F0DDCF15F014C08D
:1011B000F3FF15C0F4FF00D0E552E552E552E552C9
:0A11C000E5CFDAFFE7CFD9FF1200F8
:0611CA00060EF66E000E99
:1011D000F76E000EF86E00010900F550776F0900F8
:1011E000F550786F03E1776701D03DD00900F550E5
:1011F000726F0900F550736F0900F550746F0900A4
:101200000900F550E96E0900F550EA6E0900090081
:101210000900F550756F0900F550766F0900090057
:10122000F6CF79F0F7CF7AF0F8CF7BF072C0F6FF07
:1012300073C0F7FF74C0F8FF0001755302E17653E5
:1012400007E00900F550EE6E7507F8E27607F9D76A
:1012500079C0F6FF7AC0F7FF7BC0F8FF000177077F
:08126000000E785BBFD71200FD
:08126800D9CFE6FFDACFE6FF63
:10127000E1CFD9FFE2CFDAFFE652E652E652E6527C
:10128000F8CF02F0F6CF03F00C0EBA6E050EF66E34
:10129000F76A300EF86E0800F550010B03E0010EFE
:1012A000DB6802D0010EDB6A010EDB5002E0949293
:1012B00001D09396CA94FD0EDB50CB6ECA8402C057
:1012C000F8FF03C0F6FF040EE15C02E2E16AE552BA
:0E12D000E16EE552E5CFDAFFE7CFD9FF12005D
:0212DE00D9CF66
:1012E000E6FFDACFE6FFE1CFD9FFE2CFDAFFC26A4D
:1012F000C06AFC0EDB407F0B3C0BC26EFC0EDB3881
:10130000F00B300B146EFB0EDB500F0B1410C16E84
:10131000FD0EDB50040DF350380B156EFD0EDB385F
:101320000F0B070B146EFD0EDB50800B1410151005
:10133000C06EFC0EDBAE03D09E9C9D8CF28CC280F6
:0C134000E552E5CFDAFFE7CFD9FF12003D
:04134C00D9CFE6FF10
:10135000DACFE6FFE1CFD9FFE2CFDAFFE652E6527D
:10136000FC0EDBCF14F0FD0EDBCF15F0060ED8908F
:1013700014361536E804FBE114C0DEFF15C0DDFFAE
:10138000010EDB50BB6EDF50E840E8403F0B300BF6
:10139000146ECF0EBA141410BA6EE552E552E5522F
:0A13A000E5CFDAFFE7CFD9FF120016
:0613AA00D9CFE6FFDACF07
:1013B000E6FFE1CFD9FFE2CFDAFFE652E652FC0EBC
:1013C000DBCF14F0FD0EDBCF15F0060ED8901436EF
:1013D0001536E804FBE114C0DEFF15C0DDFF010E89
:1013E000DB50BE6EDF50E840E8403F0B300B146E20
:1013F000CF0EBD141410BD6EE552E552E552E5CF97
:08140000DAFFE7CFD9FF12006B
:08140800D9CFE6FFDACFE6FFC1
:10141000E1CFD9FFE2CFDAFFFD0EDB50FB0BCA6E46
:10142000CC6A9E92FD0EDBAE02D09D8201D09D92D1
:0E143000CA84E552E5CFDAFFE7CFD9FF1200FC
:02143E00D9CF04
:10144000E6FFDACFE6FFE1CFD9FFE2CFDAFF0C0EFD
:10145000BD129494CA94FD0EDB50CB6ECA84E55243
:0E146000E5CFDAFFE7CFD9FF12009494120017
:02146E00D9CFD4
:10147000E6FFDACFE6FFE1CFD9FFE2CFDAFFC30E16
:10148000C214146EFD0EDB407F0B3C0B1410C26EB9
:0C149000E552E5CFDAFFE7CFD9FF1200EC
:04149C00056A046A6F
:1014A000100EE76ED89008360936043605360D5012
:1014B000045C0E50055805E30D50045E0E50055AAD
:0814C000082AE72EF0D7120004
:0814C800000EF36E00EE00F0CF
:1014D000080E01D81200EA6002D0EE6AFCD7F35081
:0814E000E9601200EE6AFCD77E
:0814E80013EE00F023EE00F00A
:1014F000F86A019CE5EC08F092EC0AF00AEC00F0C6
:04150000FBD7120003
:0C150400C450176E166AC3501610F36E28
:0615100017C0F4FF1200F9
:0A151600C250020B01E0010E1200AA
:04152000C282120071
:021524001200B3
:0A15260000000100020000000000B8
:081530000000000000000000B3
:020000040030CA
:0100000024DB
:010001000EF0
:0100020039C4
:010003001EDE
:010005008179
:010006008178
:010008000FE8
:01000900C036
:01000A000FE6
:01000B00E014
:01000C000FE4
:01000D0040B2
:00000001FF
